{
  "contractName": "Random",
  "abi": [
    {
      "constant": true,
      "inputs": [],
      "name": "GetRandomNumber",
      "outputs": [
        {
          "internalType": "uint256",
          "name": "",
          "type": "uint256"
        }
      ],
      "payable": false,
      "stateMutability": "view",
      "type": "function"
    }
  ],
  "bytecode": "0x6080604052348015600f57600080fd5b50608f8061001e6000396000f3fe6080604052348015600f57600080fd5b506004361060285760003560e01c8063fb8c742014602d575b600080fd5b60336049565b6040518082815260200191505060405180910390f35b600060024281605457fe5b0690509056fea265627a7a723158204e9f319fcae074a7d5ace9fd80b8d014d53b44fc3a9c2f47828c16e4910e3dc964736f6c634300050c0032",
  "source": "pragma solidity ^0.5.12;\r\n\r\ncontract Random {\r\n    function GetRandomNumber() public view returns (uint256) {\r\n        return now % 2;\r\n    }\r\n}\r\n",
  "sourcePath": "F:/Blockchain/ethereum/dapps/eth-or-erc20/ETHor Base/eth-or-erc20/contracts/Random.sol",
  "compiler": {
    "name": "solc",
    "version": "0.5.12+commit.7709ece9.Emscripten.clang"
  },
  "schemaVersion": "3.0.16",
  "updatedAt": "2020-06-18T22:00:23.061Z",
  "devdoc": {
    "methods": {}
  },
  "userdoc": {
    "methods": {}
  }
}